{
  "contractName": "CrowdFunding",
  "abi": [
    {
      "inputs": [],
      "stateMutability": "nonpayable",
      "type": "constructor"
    },
    {
      "inputs": [
        {
          "internalType": "uint256",
          "name": "",
          "type": "uint256"
        },
        {
          "internalType": "address",
          "name": "",
          "type": "address"
        }
      ],
      "name": "isParticipate",
      "outputs": [
        {
          "internalType": "bool",
          "name": "",
          "type": "bool"
        }
      ],
      "stateMutability": "view",
      "type": "function",
      "constant": true
    },
    {
      "inputs": [],
      "name": "numCampaign",
      "outputs": [
        {
          "internalType": "uint256",
          "name": "",
          "type": "uint256"
        }
      ],
      "stateMutability": "view",
      "type": "function",
      "constant": true
    },
    {
      "inputs": [
        {
          "internalType": "address payable",
          "name": "receiver",
          "type": "address"
        },
        {
          "internalType": "uint256",
          "name": "goal",
          "type": "uint256"
        }
      ],
      "name": "newCampaign",
      "outputs": [
        {
          "internalType": "uint256",
          "name": "campaignID",
          "type": "uint256"
        }
      ],
      "stateMutability": "nonpayable",
      "type": "function"
    },
    {
      "inputs": [
        {
          "internalType": "uint256",
          "name": "campaignID",
          "type": "uint256"
        }
      ],
      "name": "bid",
      "outputs": [],
      "stateMutability": "payable",
      "type": "function",
      "payable": true
    },
    {
      "inputs": [
        {
          "internalType": "uint256",
          "name": "campaignID",
          "type": "uint256"
        }
      ],
      "name": "withdraw",
      "outputs": [
        {
          "internalType": "bool",
          "name": "reached",
          "type": "bool"
        }
      ],
      "stateMutability": "nonpayable",
      "type": "function"
    }
  ],
  "bytecode": "0x60a060405234801561001057600080fd5b50336080526080516103b161002d600039600050506103b16000f3fe60806040526004361061004a5760003560e01c80632e1a7d4d1461004f578063454a2ab314610084578063728dda19146100995780638129dfc9146100d4578063f7572cf3146100f8575b600080fd5b34801561005b57600080fd5b5061006f61006a3660046102a7565b610118565b60405190151581526020015b60405180910390f35b6100976100923660046102a7565b610190565b005b3480156100a557600080fd5b5061006f6100b43660046102d8565b600360209081526000928352604080842090915290825290205460ff1681565b3480156100e057600080fd5b506100ea60005481565b60405190815260200161007b565b34801561010457600080fd5b506100ea610113366004610308565b61025b565b600081815260016020526040812060028101546003820154101561013f5750600092915050565b600381018054600091829055825460405191926001600160a01b039091169183156108fc0291849190818181858888f19350505050158015610185573d6000803e3d6000fd5b506001949350505050565b6000818152600360209081526040808320338452909152902054819060ff16156101b957600080fd5b6000828152600160205260408120600381018054919234926101dc90849061034a565b9091555050600181810180546000906101f690849061034a565b909155505050600091825250600260208181526040808420815180830190925233825234828401908152815460018082018455928752939095209151929093020180546001600160a01b0319166001600160a01b039092169190911781559151910155565b60008054818061026a83610362565b90915550600081815260016020526040902080546001600160a01b0319166001600160a01b03959095169490941784556002909301919091555090565b6000602082840312156102b957600080fd5b5035919050565b6001600160a01b03811681146102d557600080fd5b50565b600080604083850312156102eb57600080fd5b8235915060208301356102fd816102c0565b809150509250929050565b6000806040838503121561031b57600080fd5b8235610326816102c0565b946020939093013593505050565b634e487b7160e01b600052601160045260246000fd5b6000821982111561035d5761035d610334565b500190565b60006001820161037457610374610334565b506001019056fea2646970667358221220661b24425deb828db53aa0ff8b4f8c9fd1eaa0bd3d636f603fc69e3a4dff88da64736f6c634300080e0033",
  "immutableReferences": {},
  "source": "// SPDX-License-Identifier: MIT\npragma solidity ^0.8.0;\n\ncontract CrowFundingStorage {\n    struct Campaign {\n        address payable receiver;\n        uint256 numFunders;\n        uint256 fundingGoal;\n        uint256 totalAmount;\n    }\n\n    struct Funder {\n        address addr;\n        uint256 amount;\n    }\n\n    uint256 public numCampaign;\n    mapping(uint256 => Campaign) campaigns;\n    mapping(uint256 => Funder[]) funders;\n\n    mapping(uint256 => mapping(address => bool)) public isParticipate;\n}\n\ncontract CrowdFunding is CrowFundingStorage {\n    address immutable owner;\n\n    constructor() {\n        owner = msg.sender;\n    }\n\n    modifier judgeParticipate(uint256 campaignID) {\n        require(isParticipate[campaignID][msg.sender] == false);\n        _;\n    }\n\n    modifier isOwner() {\n        require(msg.sender == owner);\n        _;\n    }\n\n    function newCampaign(address payable receiver, uint256 goal)\n        external\n        returns (uint256 campaignID)\n    {\n        campaignID = numCampaign++;\n        Campaign storage c = campaigns[campaignID];\n        c.receiver = receiver;\n        c.fundingGoal = goal;\n    }\n\n    function bid(uint256 campaignID)\n        external\n        payable\n        judgeParticipate(campaignID)\n    {\n        Campaign storage c = campaigns[campaignID];\n        c.totalAmount += msg.value;\n        c.numFunders += 1;\n\n        funders[campaignID].push(Funder({addr: msg.sender, amount: msg.value}));\n    }\n\n    function withdraw(uint256 campaignID) external returns (bool reached) {\n        Campaign storage c = campaigns[campaignID];\n\n        if (c.totalAmount < c.fundingGoal) {\n            return false;\n        }\n\n        uint256 amount = c.totalAmount;\n        c.totalAmount = 0;\n        c.receiver.transfer(amount);\n        return true;\n    }\n}\n",
  "sourcePath": "/home/wangziluo/workspace/blockchain/truffle-contract-demo/contracts/CrowdFunding.sol",
  "compiler": {
    "name": "solc",
    "version": "0.8.14+commit.80d49f37.Emscripten.clang"
  },
  "schemaVersion": "3.4.7",
  "updatedAt": "2022-06-07T01:40:00.925Z",
  "networkType": "ethereum",
  "devdoc": {
    "kind": "dev",
    "methods": {},
    "version": 1
  },
  "userdoc": {
    "kind": "user",
    "methods": {},
    "version": 1
  }
}