{
  "contractName": "CrowFundingStorage",
  "abi": [
    {
      "inputs": [
        {
          "internalType": "uint256",
          "name": "",
          "type": "uint256"
        },
        {
          "internalType": "address",
          "name": "",
          "type": "address"
        }
      ],
      "name": "isParticipate",
      "outputs": [
        {
          "internalType": "bool",
          "name": "",
          "type": "bool"
        }
      ],
      "stateMutability": "view",
      "type": "function"
    },
    {
      "inputs": [],
      "name": "numCampaign",
      "outputs": [
        {
          "internalType": "uint256",
          "name": "",
          "type": "uint256"
        }
      ],
      "stateMutability": "view",
      "type": "function"
    }
  ],
  "bytecode": "0x608060405234801561001057600080fd5b5060fc8061001f6000396000f3fe6080604052348015600f57600080fd5b506004361060325760003560e01c8063728dda191460375780638129dfc9146077575b600080fd5b60626042366004608c565b600360209081526000928352604080842090915290825290205460ff1681565b60405190151581526020015b60405180910390f35b607f60005481565b604051908152602001606e565b60008060408385031215609e57600080fd5b8235915060208301356001600160a01b038116811460bb57600080fd5b80915050925092905056fea2646970667358221220c4d370d54b6be3607739c6e7b0004f08025eea82b204b3774bdfc6a35685beb064736f6c634300080e0033",
  "immutableReferences": {},
  "source": "// SPDX-License-Identifier: MIT\npragma solidity ^0.8.0;\n\ncontract CrowFundingStorage {\n    struct Campaign {\n        address payable receiver;\n        uint256 numFunders;\n        uint256 fundingGoal;\n        uint256 totalAmount;\n    }\n\n    struct Funder {\n        address addr;\n        uint256 amount;\n    }\n\n    uint256 public numCampaign;\n    mapping(uint256 => Campaign) campaigns;\n    mapping(uint256 => Funder[]) funders;\n\n    mapping(uint256 => mapping(address => bool)) public isParticipate;\n}\n\ncontract CrowdFunding is CrowFundingStorage {\n    address immutable owner;\n\n    constructor() {\n        owner = msg.sender;\n    }\n\n    modifier judgeParticipate(uint256 campaignID) {\n        require(isParticipate[campaignID][msg.sender] == false);\n        _;\n    }\n\n    modifier isOwner() {\n        require(msg.sender == owner);\n        _;\n    }\n\n    function newCampaign(address payable receiver, uint256 goal)\n        external\n        returns (uint256 campaignID)\n    {\n        campaignID = numCampaign++;\n        Campaign storage c = campaigns[campaignID];\n        c.receiver = receiver;\n        c.fundingGoal = goal;\n    }\n\n    function bid(uint256 campaignID)\n        external\n        payable\n        judgeParticipate(campaignID)\n    {\n        Campaign storage c = campaigns[campaignID];\n        c.totalAmount += msg.value;\n        c.numFunders += 1;\n\n        funders[campaignID].push(Funder({addr: msg.sender, amount: msg.value}));\n    }\n\n    function withdraw(uint256 campaignID) external returns (bool reached) {\n        Campaign storage c = campaigns[campaignID];\n\n        if (c.totalAmount < c.fundingGoal) {\n            return false;\n        }\n\n        uint256 amount = c.totalAmount;\n        c.totalAmount = 0;\n        c.receiver.transfer(amount);\n        return true;\n    }\n}\n",
  "sourcePath": "/home/wangziluo/workspace/blockchain/truffle-contract-demo/contracts/CrowdFunding.sol",
  "compiler": {
    "name": "solc",
    "version": "0.8.14+commit.80d49f37.Emscripten.clang"
  },
  "schemaVersion": "3.4.7",
  "updatedAt": "2022-06-07T01:39:10.964Z",
  "devdoc": {
    "kind": "dev",
    "methods": {},
    "version": 1
  },
  "userdoc": {
    "kind": "user",
    "methods": {},
    "version": 1
  }
}